:1000000024C03DC03CC03BC03AC0E6C138C037C088
:1000100036C035C034C033C032C031C030C000003B
:100020000000370000000000380002020202020255
:10003000020202020102040810202004100801023A
:100040000000040000000000FD0211241FBECFE5E7
:10005000D2E0DEBFCDBF20E0A0E6B0E001C01D923F
:10006000A137B207E1F710E0C5E2D0E003C0219765
:10007000FE01D1D2C432D107D1F7F8D1D2C2C0CF5C
:1000800090E0FC01E25CFF4F3491FC01EC5CFF4F1F
:100090002491FC01E65DFF4FE491EE23B9F0332398
:1000A00029F0323001F198F43130C9F0F0E0EE0F70
:1000B000FF1FEC5DFF4FA591B4918FB7F894EC91C1
:1000C000611114C020952E232C938FBF08953330D7
:1000D00011F0343059F78CB58F7D8CBDE7CF8AB5E0
:1000E0008F778ABDE3CF8AB58F7DFBCF2E2BECCFE8
:1000F000CF93DF9390E0FC01EC5CFF4F2491865D91
:100100009F4FFC0184918823D1F090E0880F991FC4
:10011000FC01E25EFF4FA591B491FC01EC5DFF4F45
:10012000C591D49161110EC09FB7F8948C91E22FC4
:10013000E0958E238C932881E223E8839FBFDF9193
:10014000CF9108958FB7F894EC91E22BEC938FBF89
:10015000F6CF80916A0090916B0060E0992369F07E
:1001600061E08EDF61E080916A00C2DF60E0809133
:100170006B0086DF61E080916B00BACF80916A00EE
:1001800090916B0060E0992349F0B2DF60E08091CC
:100190006B0076DF61E080916B00AACF71DF61E0D8
:1001A00080916A00FACF80916A0090916B0061E0C3
:1001B000992349F065DF61E080916A0099DF60E092
:1001C00080916B0095CF5CDF61E080916A00FACF8F
:1001D0003FB7F8948091610090916200A091630014
:1001E000B091640022B708B601FE05C02F3F19F098
:1001F0000196A11DB11D3FBFBA2FA92F982F8827A7
:10020000BC01CD01620F711D811D911D46E0660F7D
:10021000771F881F991F4A95D1F708958F929F9253
:10022000AF92BF92CF92DF92EF92FF924B015C01AF
:10023000CFDF6B017C01CCDF6C197D098E099F0932
:10024000683E734081059105B0F321E0821A910860
:10025000A108B10888EEC80E83E0D81EE11CF11C8D
:1002600081149104A104B10431F7FF90EF90DF9065
:10027000CF90BF90AF909F908F90089510926E0096
:1002800060E08091690034DF80916B008823F1F099
:1002900060E080916A002CDF60E080916B0028DFD5
:1002A0002FB7F8948091650090916600A091670047
:1002B000B09168002FBF8E3D9540A105B10580F338
:1002C00081E080936C0010926D00089542DF2FB79B
:1002D000F8948091650090916600A0916700B091BC
:1002E00068002FBF8C3D9540A105B10580F346DF26
:1002F00062E070E080E090E091DFE2CF80916C00FE
:10030000811101C0BBDF60E080916900F1DE36DF62
:100310006CE370E080E090E081DF88E893E1909307
:10032000700080936F0010926D00089580916C00B2
:10033000811101C0A3DF80916D008111DFDF60E0DA
:1003400080916900D5DE05DF6CE370E080E090E02D
:1003500065DF80EE9EE29093700080936F001092B4
:100360006D000895CF93DF93C9E6D0E060E0888107
:10037000BFDE19DF6CE370E080E090E04FDF81E0EA
:100380008C83DF91CF91089580916C00811101C021
:1003900075DF80916F009091700081319E4088F0F0
:1003A00080916D00811101C0DDDFD3DE61E070E07E
:1003B00080E090E033DFF7DE61E070E080E090E025
:1003C0002DDF80916F0090917000885C910990936F
:1003D000700080936F0008951F920F920FB60F92D6
:1003E00011242F933F938F939F93AF93BF9380914B
:1003F000650090916600A0916700B091680030910F
:10040000600020E3230F2D3758F54096A11DB11D44
:10041000209360008093650090936600A09367002E
:10042000B09368008091610090916200A091630098
:10043000B09164000196A11DB11D8093610090935D
:100440006200A0936300B0936400BF91AF919F914D
:100450008F913F912F910F900FBE0F901F90189585
:1004600023EB230F4196A11DB11DD2CF78948AB5FD
:1004700082608ABD8AB581608ABD83B7826083BF8E
:1004800083B7816083BF89B7826089BF80B782608C
:1004900080BF3298319A309A379A8CB580648CBD7F
:1004A00045DF68EE73E080E090E0B8DE08E213E23A
:1004B00080E0E82E80E0F82E68EE73E080E090E0C7
:1004C000ADDE80916C00811101C0D8DE80916D009D
:1004D000811114DF61E080916900D2DD61E08091DB
:1004E000690006DE36DE6CE370E080E090E096DEC8
:1004F0001093700000936F0010926D0068EE73E02F
:1005000080E090E08BDEFADE68EE73E080E090E061
:1005100085DE80916C00811101C0B0DE80916F009A
:1005200090917000803727E1920709F450C080371E
:10053000974108F043C080916F0090917000803720
:10054000974108F044C080916C00811101C096DE93
:1005500020916F003091700080916E0081112BC04E
:1005600080EE9EE228173907D8F480916D00811142
:1005700001C0F8DE61E08091690082DD61E0809178
:100580006900B6DD61E070E080E090E047DE60E0A9
:1005900080916900ADDD61E070E080E090E03EDEDA
:1005A00080916F009091700088539F4F90937000DE
:1005B00080936F00C0CF80E29EE4D4CF80916F0023
:1005C000909170008137974110F0DEDEF7CF68EE32
:1005D00073E080E090E022DECAE0D0E0D5DE219733
:1005E000E9F768EE73E080E090E018DE9FDEE1144A
:1005F000F10409F461CF04DD5FCFE9E6F0E081E0CA
:10060000808384E0818312821382148288E893E1DC
:10061000978386830895EE0FFF1F0590F491E02DD8
:060620000994F894FFCFDD
:00000001FF
