:1000000023C032C031C030C02FC0BFC02DC02CC0F3
:100010002BC02AC029C028C027C026C025C0000088
:100020000000370000000000380002020202020255
:10003000020202020102040810202004100801023A
:10004000000004000000000011241FBECFE5D2E034
:10005000DEBFCDBF20E0A0E6B0E001C01D92A93612
:10006000B207E1F7DCD01CC1CBCFEFE3F0E0249185
:10007000E5E3F0E09491EBE2F0E0E491EE23C1F0EF
:10008000222329F0223009F1A0F42130D1F0F0E050
:10009000EE0FFF1FEC5DFF4FA591B4912FB7F894C1
:1000A000811116C08C91E92FE095E823EC932FBFC6
:1000B0000895233011F0243051F72CB52F7D2CBD3D
:1000C000E6CF2AB52F772ABDE2CF2AB52F7DFBCF09
:1000D000EC91E92BEBCF3FB7F894809165009091BC
:1000E0006600A0916700B091680022B708B601FED3
:1000F00005C02F3F19F00196A11DB11D3FBFBA2FBA
:10010000A92F982F8827BC01CD01620F711D811D79
:10011000911D46E0660F771F881F991F4A95D1F7FA
:1001200008958F929F92AF92BF92CF92DF92EF92FB
:10013000FF92D1DF4B015C0188EEC82E83E0D82E00
:10014000E12CF12CC8DF681979098A099B09683EFE
:10015000734081059105B0F321E0C21AD108E1088E
:10016000F10888EE880E83E0981EA11CB11CC11412
:10017000D104E104F10431F7FF90EF90DF90CF90CC
:10018000BF90AF909F908F9008951F920F920FB6DF
:100190000F9211242F933F938F939F93AF93BF930D
:1001A0008091610090916200A0916300B091640021
:1001B0003091600020E3230F2D3758F54096A11DA4
:1001C000B11D209360008093610090936200A09322
:1001D0006300B09364008091650090916600A091E7
:1001E0006700B09168000196A11DB11D8093650064
:1001F00090936600A0936700B0936800BF91AF91A1
:100200009F918F913F912F910F900FBE0F901F9054
:10021000189523EB230F4196A11DB11DD2CF7894E1
:100220008AB582608ABD8AB581608ABD83B78260E3
:1002300083BF83B7816083BF89B7826089BF80B77E
:10024000826080BF3298319A309A379A8CB5806438
:100250008CBDE5E3F0E02491EBE2F0E084918823AB
:1002600099F090E0880F991FFC01E25EFF4FA59185
:10027000B491FC01EC5DFF4F859194918FB7F89498
:10028000EC91E22BEC938FBFC0E0D0E081E0EDDE9B
:1002900048DF80E0EADE45DF2097C1F3B1DEF6CF2C
:0402A000F894FFCF00
:00000001FF
